{
  "contractName": "land",
  "abi": [
    {
      "inputs": [],
      "payable": false,
      "stateMutability": "nonpayable",
      "type": "constructor"
    },
    {
      "constant": true,
      "inputs": [],
      "name": "originator",
      "outputs": [
        {
          "internalType": "address",
          "name": "",
          "type": "address"
        }
      ],
      "payable": false,
      "stateMutability": "view",
      "type": "function"
    },
    {
      "constant": true,
      "inputs": [
        {
          "internalType": "uint256",
          "name": "",
          "type": "uint256"
        }
      ],
      "name": "properties",
      "outputs": [
        {
          "internalType": "uint256",
          "name": "id",
          "type": "uint256"
        },
        {
          "internalType": "enum land.Status",
          "name": "status",
          "type": "uint8"
        },
        {
          "internalType": "uint256",
          "name": "value",
          "type": "uint256"
        },
        {
          "internalType": "address",
          "name": "currOwner",
          "type": "address"
        },
        {
          "internalType": "uint256",
          "name": "size",
          "type": "uint256"
        },
        {
          "internalType": "string",
          "name": "state",
          "type": "string"
        },
        {
          "internalType": "string",
          "name": "district",
          "type": "string"
        },
        {
          "internalType": "uint256",
          "name": "surveyNumber",
          "type": "uint256"
        }
      ],
      "payable": false,
      "stateMutability": "view",
      "type": "function"
    },
    {
      "constant": true,
      "inputs": [
        {
          "internalType": "uint256",
          "name": "",
          "type": "uint256"
        }
      ],
      "name": "propertiesUnderTxn",
      "outputs": [
        {
          "internalType": "address",
          "name": "",
          "type": "address"
        }
      ],
      "payable": false,
      "stateMutability": "view",
      "type": "function"
    },
    {
      "constant": true,
      "inputs": [],
      "name": "propertyid",
      "outputs": [
        {
          "internalType": "uint256",
          "name": "",
          "type": "uint256"
        }
      ],
      "payable": false,
      "stateMutability": "view",
      "type": "function"
    },
    {
      "constant": true,
      "inputs": [
        {
          "internalType": "uint256",
          "name": "",
          "type": "uint256"
        }
      ],
      "name": "uniqueids",
      "outputs": [
        {
          "internalType": "uint256",
          "name": "",
          "type": "uint256"
        }
      ],
      "payable": false,
      "stateMutability": "view",
      "type": "function"
    },
    {
      "constant": true,
      "inputs": [
        {
          "internalType": "address",
          "name": "",
          "type": "address"
        }
      ],
      "name": "users",
      "outputs": [
        {
          "internalType": "int256",
          "name": "",
          "type": "int256"
        }
      ],
      "payable": false,
      "stateMutability": "view",
      "type": "function"
    },
    {
      "constant": true,
      "inputs": [
        {
          "internalType": "address",
          "name": "",
          "type": "address"
        }
      ],
      "name": "verifiedUsers",
      "outputs": [
        {
          "internalType": "bool",
          "name": "",
          "type": "bool"
        }
      ],
      "payable": false,
      "stateMutability": "view",
      "type": "function"
    },
    {
      "constant": false,
      "inputs": [
        {
          "internalType": "address",
          "name": "_newUser",
          "type": "address"
        }
      ],
      "name": "addNewUser",
      "outputs": [
        {
          "internalType": "bool",
          "name": "",
          "type": "bool"
        }
      ],
      "payable": false,
      "stateMutability": "nonpayable",
      "type": "function"
    },
    {
      "constant": false,
      "inputs": [
        {
          "internalType": "address",
          "name": "_newAuthority",
          "type": "address"
        }
      ],
      "name": "addAuthority",
      "outputs": [
        {
          "internalType": "bool",
          "name": "",
          "type": "bool"
        }
      ],
      "payable": false,
      "stateMutability": "nonpayable",
      "type": "function"
    },
    {
      "constant": false,
      "inputs": [
        {
          "internalType": "address",
          "name": "_newUser",
          "type": "address"
        }
      ],
      "name": "approveUsers",
      "outputs": [
        {
          "internalType": "bool",
          "name": "",
          "type": "bool"
        }
      ],
      "payable": false,
      "stateMutability": "nonpayable",
      "type": "function"
    },
    {
      "constant": false,
      "inputs": [
        {
          "internalType": "uint256",
          "name": "_value",
          "type": "uint256"
        },
        {
          "internalType": "address",
          "name": "_currOwner",
          "type": "address"
        },
        {
          "internalType": "uint256",
          "name": "_size",
          "type": "uint256"
        },
        {
          "internalType": "string",
          "name": "_state",
          "type": "string"
        },
        {
          "internalType": "string",
          "name": "_district",
          "type": "string"
        },
        {
          "internalType": "uint256",
          "name": "_surveyNumber",
          "type": "uint256"
        }
      ],
      "name": "createProperty",
      "outputs": [
        {
          "internalType": "bool",
          "name": "",
          "type": "bool"
        }
      ],
      "payable": false,
      "stateMutability": "nonpayable",
      "type": "function"
    },
    {
      "constant": false,
      "inputs": [
        {
          "internalType": "uint256",
          "name": "_ID",
          "type": "uint256"
        }
      ],
      "name": "approveProperty",
      "outputs": [
        {
          "internalType": "bool",
          "name": "",
          "type": "bool"
        }
      ],
      "payable": false,
      "stateMutability": "nonpayable",
      "type": "function"
    },
    {
      "constant": false,
      "inputs": [
        {
          "internalType": "uint256",
          "name": "_ID",
          "type": "uint256"
        }
      ],
      "name": "rejectProperty",
      "outputs": [
        {
          "internalType": "bool",
          "name": "",
          "type": "bool"
        }
      ],
      "payable": false,
      "stateMutability": "nonpayable",
      "type": "function"
    },
    {
      "constant": false,
      "inputs": [
        {
          "internalType": "uint256",
          "name": "_ID",
          "type": "uint256"
        },
        {
          "internalType": "uint256",
          "name": "_newValue",
          "type": "uint256"
        }
      ],
      "name": "changeValue",
      "outputs": [
        {
          "internalType": "bool",
          "name": "",
          "type": "bool"
        }
      ],
      "payable": false,
      "stateMutability": "nonpayable",
      "type": "function"
    },
    {
      "constant": false,
      "inputs": [
        {
          "internalType": "uint256",
          "name": "_ID",
          "type": "uint256"
        },
        {
          "internalType": "address",
          "name": "_newOwner",
          "type": "address"
        }
      ],
      "name": "sale",
      "outputs": [
        {
          "internalType": "bool",
          "name": "",
          "type": "bool"
        }
      ],
      "payable": false,
      "stateMutability": "nonpayable",
      "type": "function"
    },
    {
      "constant": false,
      "inputs": [
        {
          "internalType": "uint256",
          "name": "_ID",
          "type": "uint256"
        }
      ],
      "name": "approveSale",
      "outputs": [
        {
          "internalType": "bool",
          "name": "",
          "type": "bool"
        }
      ],
      "payable": false,
      "stateMutability": "nonpayable",
      "type": "function"
    },
    {
      "constant": true,
      "inputs": [
        {
          "internalType": "uint256",
          "name": "_ID",
          "type": "uint256"
        }
      ],
      "name": "getPropertyDetails",
      "outputs": [
        {
          "internalType": "enum land.Status",
          "name": "",
          "type": "uint8"
        },
        {
          "internalType": "uint256",
          "name": "",
          "type": "uint256"
        },
        {
          "internalType": "address",
          "name": "",
          "type": "address"
        },
        {
          "internalType": "uint256",
          "name": "",
          "type": "uint256"
        },
        {
          "internalType": "string",
          "name": "",
          "type": "string"
        },
        {
          "internalType": "string",
          "name": "",
          "type": "string"
        },
        {
          "internalType": "uint256",
          "name": "",
          "type": "uint256"
        }
      ],
      "payable": false,
      "stateMutability": "view",
      "type": "function"
    }
  ],
  "bytecode": "0x608060405234801561001057600080fd5b50336000806101000a81548173ffffffffffffffffffffffffffffffffffffffff021916908373ffffffffffffffffffffffffffffffffffffffff1602179055506002600560008060009054906101000a900473ffffffffffffffffffffffffffffffffffffffff1673ffffffffffffffffffffffffffffffffffffffff1673ffffffffffffffffffffffffffffffffffffffff168152602001908152602001600020819055506001600660008060009054906101000a900473ffffffffffffffffffffffffffffffffffffffff1673ffffffffffffffffffffffffffffffffffffffff1673ffffffffffffffffffffffffffffffffffffffff16815260200190815260200160002060006101000a81548160ff021916908315150217905550611dea8061013f6000396000f3fe608060405234801561001057600080fd5b506004361061010b5760003560e01c80638709b2e7116100a2578063c1d5e84f11610071578063c1d5e84f14610724578063c902d02c14610780578063e35fe366146107ee578063e9b66f8c1461084a578063f7b10808146108905761010b565b80638709b2e7146105d4578063a3684ca314610624578063a87430ba1461068a578063b37c2563146106e25761010b565b806327983fcf116100de57806327983fcf146104ca5780632cc616f51461051057806332282f8e1461052e5780633c815d9e1461058a5761010b565b8063076215b614610110578063126dbe43146102b857806314a72feb1461042857806326defa731461046e575b600080fd5b61029e600480360360c081101561012657600080fd5b8101908080359060200190929190803573ffffffffffffffffffffffffffffffffffffffff169060200190929190803590602001909291908035906020019064010000000081111561017757600080fd5b82018360208201111561018957600080fd5b803590602001918460018302840111640100000000831117156101ab57600080fd5b91908080601f016020809104026020016040519081016040528093929190818152602001838380828437600081840152601f19601f8201169050808301925050505050505091929192908035906020019064010000000081111561020e57600080fd5b82018360208201111561022057600080fd5b8035906020019184600183028401116401000000008311171561024257600080fd5b91908080601f016020809104026020016040519081016040528093929190818152602001838380828437600081840152601f19601f82011690508083019250505050505050919291929080359060200190929190505050610a07565b604051808215151515815260200191505060405180910390f35b6102e4600480360360208110156102ce57600080fd5b8101908080359060200190929190505050610c6a565b604051808860038111156102f457fe5b60ff1681526020018781526020018673ffffffffffffffffffffffffffffffffffffffff1673ffffffffffffffffffffffffffffffffffffffff1681526020018581526020018060200180602001848152602001838103835286818151815260200191508051906020019080838360005b83811015610380578082015181840152602081019050610365565b50505050905090810190601f1680156103ad5780820380516001836020036101000a031916815260200191505b50838103825285818151815260200191508051906020019080838360005b838110156103e65780820151818401526020810190506103cb565b50505050905090810190601f1680156104135780820380516001836020036101000a031916815260200191505b50995050505050505050505060405180910390f35b6104546004803603602081101561043e57600080fd5b8101908080359060200190929190505050610e92565b604051808215151515815260200191505060405180910390f35b6104b06004803603602081101561048457600080fd5b81019080803573ffffffffffffffffffffffffffffffffffffffff169060200190929190505050611086565b604051808215151515815260200191505060405180910390f35b6104f6600480360360208110156104e057600080fd5b8101908080359060200190929190505050611220565b604051808215151515815260200191505060405180910390f35b610518611372565b6040518082815260200191505060405180910390f35b6105706004803603602081101561054457600080fd5b81019080803573ffffffffffffffffffffffffffffffffffffffff169060200190929190505050611378565b604051808215151515815260200191505060405180910390f35b6105926114c9565b604051808273ffffffffffffffffffffffffffffffffffffffff1673ffffffffffffffffffffffffffffffffffffffff16815260200191505060405180910390f35b61060a600480360360408110156105ea57600080fd5b8101908080359060200190929190803590602001909291905050506114ee565b604051808215151515815260200191505060405180910390f35b6106706004803603604081101561063a57600080fd5b8101908080359060200190929190803573ffffffffffffffffffffffffffffffffffffffff1690602001909291905050506115f1565b604051808215151515815260200191505060405180910390f35b6106cc600480360360208110156106a057600080fd5b81019080803573ffffffffffffffffffffffffffffffffffffffff1690602001909291905050506117f2565b6040518082815260200191505060405180910390f35b61070e600480360360208110156106f857600080fd5b810190808035906020019092919050505061180a565b6040518082815260200191505060405180910390f35b6107666004803603602081101561073a57600080fd5b81019080803573ffffffffffffffffffffffffffffffffffffffff16906020019092919050505061182b565b604051808215151515815260200191505060405180910390f35b6107ac6004803603602081101561079657600080fd5b81019080803590602001909291905050506119c5565b604051808273ffffffffffffffffffffffffffffffffffffffff1673ffffffffffffffffffffffffffffffffffffffff16815260200191505060405180910390f35b6108306004803603602081101561080457600080fd5b81019080803573ffffffffffffffffffffffffffffffffffffffff1690602001909291905050506119f8565b604051808215151515815260200191505060405180910390f35b6108766004803603602081101561086057600080fd5b8101908080359060200190929190505050611a18565b604051808215151515815260200191505060405180910390f35b6108bc600480360360208110156108a657600080fd5b8101908080359060200190929190505050611b6b565b604051808981526020018860038111156108d257fe5b60ff1681526020018781526020018673ffffffffffffffffffffffffffffffffffffffff1673ffffffffffffffffffffffffffffffffffffffff1681526020018581526020018060200180602001848152602001838103835286818151815260200191508051906020019080838360005b8381101561095e578082015181840152602081019050610943565b50505050905090810190601f16801561098b5780820380516001836020036101000a031916815260200191505b50838103825285818151815260200191508051906020019080838360005b838110156109c45780820151818401526020810190506109a9565b50505050905090810190601f1680156109f15780820380516001836020036101000a031916815260200191505b509a505050505050505050505060405180910390f35b60006002600560003373ffffffffffffffffffffffffffffffffffffffff1673ffffffffffffffffffffffffffffffffffffffff16815260200190815260200160002054148015610aa15750600660003373ffffffffffffffffffffffffffffffffffffffff1673ffffffffffffffffffffffffffffffffffffffff16815260200190815260200160002060009054906101000a900460ff165b610aaa57600080fd5b85600660008273ffffffffffffffffffffffffffffffffffffffff1673ffffffffffffffffffffffffffffffffffffffff16815260200190815260200160002060009054906101000a900460ff16610b0157600080fd5b600160008154809291906001019190505550604051806101000160405280600154815260200160016003811115610b3457fe5b81526020018981526020018873ffffffffffffffffffffffffffffffffffffffff168152602001878152602001868152602001858152602001848152506003600060015481526020019081526020016000206000820151816000015560208201518160010160006101000a81548160ff02191690836003811115610bb457fe5b02179055506040820151816002015560608201518160030160006101000a81548173ffffffffffffffffffffffffffffffffffffffff021916908373ffffffffffffffffffffffffffffffffffffffff1602179055506080820151816004015560a0820151816005019080519060200190610c30929190611d10565b5060c0820151816006019080519060200190610c4d929190611d10565b5060e0820151816007015590505060019150509695505050505050565b60008060008060608060006003600089815260200190815260200160002060010160009054906101000a900460ff16600360008a815260200190815260200160002060020154600360008b815260200190815260200160002060030160009054906101000a900473ffffffffffffffffffffffffffffffffffffffff16600360008c815260200190815260200160002060040154600360008d8152602001908152602001600020600501600360008e8152602001908152602001600020600601600360008f815260200190815260200160002060070154828054600181600116156101000203166002900480601f016020809104026020016040519081016040528092919081815260200182805460018160011615610100020316600290048015610dd65780601f10610dab57610100808354040283529160200191610dd6565b820191906000526020600020905b815481529060010190602001808311610db957829003601f168201915b50505050509250818054600181600116156101000203166002900480601f016020809104026020016040519081016040528092919081815260200182805460018160011615610100020316600290048015610e725780601f10610e4757610100808354040283529160200191610e72565b820191906000526020600020905b815481529060010190602001808311610e5557829003601f168201915b505050505091509650965096509650965096509650919395979092949650565b60006002600560003373ffffffffffffffffffffffffffffffffffffffff1673ffffffffffffffffffffffffffffffffffffffff16815260200190815260200160002054148015610f2c5750600660003373ffffffffffffffffffffffffffffffffffffffff1673ffffffffffffffffffffffffffffffffffffffff16815260200190815260200160002060009054906101000a900460ff165b610f3557600080fd5b600073ffffffffffffffffffffffffffffffffffffffff166004600084815260200190815260200160002060009054906101000a900473ffffffffffffffffffffffffffffffffffffffff1673ffffffffffffffffffffffffffffffffffffffff161415610fa257600080fd5b6004600083815260200190815260200160002060009054906101000a900473ffffffffffffffffffffffffffffffffffffffff166003600084815260200190815260200160002060030160006101000a81548173ffffffffffffffffffffffffffffffffffffffff021916908373ffffffffffffffffffffffffffffffffffffffff16021790555060006004600084815260200190815260200160002060006101000a81548173ffffffffffffffffffffffffffffffffffffffff021916908373ffffffffffffffffffffffffffffffffffffffff16021790555060019050919050565b60006002600560003373ffffffffffffffffffffffffffffffffffffffff1673ffffffffffffffffffffffffffffffffffffffff168152602001908152602001600020541480156111205750600660003373ffffffffffffffffffffffffffffffffffffffff1673ffffffffffffffffffffffffffffffffffffffff16815260200190815260200160002060009054906101000a900460ff165b61112957600080fd5b6000600560008473ffffffffffffffffffffffffffffffffffffffff1673ffffffffffffffffffffffffffffffffffffffff168152602001908152602001600020541461117557600080fd5b60001515600660008473ffffffffffffffffffffffffffffffffffffffff1673ffffffffffffffffffffffffffffffffffffffff16815260200190815260200160002060009054906101000a900460ff161515146111d257600080fd5b6002600560008473ffffffffffffffffffffffffffffffffffffffff1673ffffffffffffffffffffffffffffffffffffffff1681526020019081526020016000208190555060019050919050565b60006002600560003373ffffffffffffffffffffffffffffffffffffffff1673ffffffffffffffffffffffffffffffffffffffff168152602001908152602001600020541480156112ba5750600660003373ffffffffffffffffffffffffffffffffffffffff1673ffffffffffffffffffffffffffffffffffffffff16815260200190815260200160002060009054906101000a900460ff165b6112c357600080fd5b3373ffffffffffffffffffffffffffffffffffffffff166003600084815260200190815260200160002060030160009054906101000a900473ffffffffffffffffffffffffffffffffffffffff1673ffffffffffffffffffffffffffffffffffffffff16141561133257600080fd5b600380600084815260200190815260200160002060010160006101000a81548160ff0219169083600381111561136457fe5b021790555060019050919050565b60015481565b60006002600560003373ffffffffffffffffffffffffffffffffffffffff1673ffffffffffffffffffffffffffffffffffffffff168152602001908152602001600020541480156114125750600660003373ffffffffffffffffffffffffffffffffffffffff1673ffffffffffffffffffffffffffffffffffffffff16815260200190815260200160002060009054906101000a900460ff165b61141b57600080fd5b6000600560008473ffffffffffffffffffffffffffffffffffffffff1673ffffffffffffffffffffffffffffffffffffffff16815260200190815260200160002054141561146857600080fd5b6001600660008473ffffffffffffffffffffffffffffffffffffffff1673ffffffffffffffffffffffffffffffffffffffff16815260200190815260200160002060006101000a81548160ff02191690831515021790555060019050919050565b6000809054906101000a900473ffffffffffffffffffffffffffffffffffffffff1681565b6000823373ffffffffffffffffffffffffffffffffffffffff166003600083815260200190815260200160002060030160009054906101000a900473ffffffffffffffffffffffffffffffffffffffff1673ffffffffffffffffffffffffffffffffffffffff161461155f57600080fd5b600073ffffffffffffffffffffffffffffffffffffffff166004600086815260200190815260200160002060009054906101000a900473ffffffffffffffffffffffffffffffffffffffff1673ffffffffffffffffffffffffffffffffffffffff16146115cb57600080fd5b826003600086815260200190815260200160002060020181905550600191505092915050565b6000823373ffffffffffffffffffffffffffffffffffffffff166003600083815260200190815260200160002060030160009054906101000a900473ffffffffffffffffffffffffffffffffffffffff1673ffffffffffffffffffffffffffffffffffffffff161461166257600080fd5b82600660008273ffffffffffffffffffffffffffffffffffffffff1673ffffffffffffffffffffffffffffffffffffffff16815260200190815260200160002060009054906101000a900460ff166116b957600080fd5b8373ffffffffffffffffffffffffffffffffffffffff166003600087815260200190815260200160002060030160009054906101000a900473ffffffffffffffffffffffffffffffffffffffff1673ffffffffffffffffffffffffffffffffffffffff16141561172857600080fd5b600073ffffffffffffffffffffffffffffffffffffffff166004600087815260200190815260200160002060009054906101000a900473ffffffffffffffffffffffffffffffffffffffff1673ffffffffffffffffffffffffffffffffffffffff161461179457600080fd5b836004600087815260200190815260200160002060006101000a81548173ffffffffffffffffffffffffffffffffffffffff021916908373ffffffffffffffffffffffffffffffffffffffff16021790555060019250505092915050565b60056020528060005260406000206000915090505481565b6002818154811061181757fe5b906000526020600020016000915090505481565b60006002600560003373ffffffffffffffffffffffffffffffffffffffff1673ffffffffffffffffffffffffffffffffffffffff168152602001908152602001600020541480156118c55750600660003373ffffffffffffffffffffffffffffffffffffffff1673ffffffffffffffffffffffffffffffffffffffff16815260200190815260200160002060009054906101000a900460ff165b6118ce57600080fd5b6000600560008473ffffffffffffffffffffffffffffffffffffffff1673ffffffffffffffffffffffffffffffffffffffff168152602001908152602001600020541461191a57600080fd5b60001515600660008473ffffffffffffffffffffffffffffffffffffffff1673ffffffffffffffffffffffffffffffffffffffff16815260200190815260200160002060009054906101000a900460ff1615151461197757600080fd5b6001600560008473ffffffffffffffffffffffffffffffffffffffff1673ffffffffffffffffffffffffffffffffffffffff1681526020019081526020016000208190555060019050919050565b60046020528060005260406000206000915054906101000a900473ffffffffffffffffffffffffffffffffffffffff1681565b60066020528060005260406000206000915054906101000a900460ff1681565b60006002600560003373ffffffffffffffffffffffffffffffffffffffff1673ffffffffffffffffffffffffffffffffffffffff16815260200190815260200160002054148015611ab25750600660003373ffffffffffffffffffffffffffffffffffffffff1673ffffffffffffffffffffffffffffffffffffffff16815260200190815260200160002060009054906101000a900460ff165b611abb57600080fd5b3373ffffffffffffffffffffffffffffffffffffffff166003600084815260200190815260200160002060030160009054906101000a900473ffffffffffffffffffffffffffffffffffffffff1673ffffffffffffffffffffffffffffffffffffffff161415611b2a57600080fd5b60026003600084815260200190815260200160002060010160006101000a81548160ff02191690836003811115611b5d57fe5b021790555060019050919050565b60036020528060005260406000206000915090508060000154908060010160009054906101000a900460ff16908060020154908060030160009054906101000a900473ffffffffffffffffffffffffffffffffffffffff1690806004015490806005018054600181600116156101000203166002900480601f016020809104026020016040519081016040528092919081815260200182805460018160011615610100020316600290048015611c625780601f10611c3757610100808354040283529160200191611c62565b820191906000526020600020905b815481529060010190602001808311611c4557829003601f168201915b505050505090806006018054600181600116156101000203166002900480601f016020809104026020016040519081016040528092919081815260200182805460018160011615610100020316600290048015611d005780601f10611cd557610100808354040283529160200191611d00565b820191906000526020600020905b815481529060010190602001808311611ce357829003601f168201915b5050505050908060070154905088565b828054600181600116156101000203166002900490600052602060002090601f016020900481019282601f10611d5157805160ff1916838001178555611d7f565b82800160010185558215611d7f579182015b82811115611d7e578251825591602001919060010190611d63565b5b509050611d8c9190611d90565b5090565b611db291905b80821115611dae576000816000905550600101611d96565b5090565b9056fea265627a7a723158205867a5117f2f5023ea7097dd828b9fc0dd0ce32a4d65799babcf4ffc14c69a6164736f6c63430005100032",
  "source": "pragma solidity ^0.5.0;\r\n\r\ncontract land {\r\n\r\n    address public originator;\r\n\tuint public propertyid;\r\n\tenum Status { NotFound, PendingForApproval, ApprovedForTransactions, ApplicationRejected }\r\n\tuint[] public uniqueids;\r\n\r\n\tstruct landDetails {\r\n        uint id;   //propertyid\r\n\t\tStatus status;\r\n\t\tuint value;\r\n\t\taddress currOwner;\r\n        uint size;\r\n        string state;\r\n        string district;\r\n        uint surveyNumber;  //alloted by govt\r\n\t}\r\n\r\n    // Initializing the User Contract.\r\n\tconstructor() public  {\r\n\t\toriginator = msg.sender;\r\n\t\tusers[originator] = 2;\r\n\t\tverifiedUsers[originator] = true;\r\n\t}\r\n\r\n\tmapping(uint => landDetails) public properties;\r\n\tmapping(uint => address) public propertiesUnderTxn;\r\n\r\n    mapping(address => int) public users;   //maps users to level of authority \r\n    mapping(address => bool) public verifiedUsers;\r\n\r\n\tfunction addNewUser(address _newUser) public verifyAuthority returns (bool) {\r\n\t    require(users[_newUser] == 0);\r\n\t    require(verifiedUsers[_newUser] == false);\r\n\t    users[_newUser] = 1;\r\n\t    return true;\r\n\t}\r\n\r\n\r\n\tfunction addAuthority(address _newAuthority) public verifyAuthority returns (bool) {\r\n\t    require(users[_newAuthority] == 0);\r\n\t    require(verifiedUsers[_newAuthority] == false);\r\n\t    users[_newAuthority] = 2;\r\n\t    return true;\r\n\t}\r\n\r\n\tmodifier onlyOwner(uint _propId) {\r\n\t\trequire(properties[_propId].currOwner == msg.sender);\r\n\t\t_;\r\n\t}\r\n\r\n\tfunction approveUsers(address _newUser) verifyAuthority public returns (bool) {\r\n\t    require(users[_newUser] != 0);\r\n\t    verifiedUsers[_newUser] = true;\r\n\t    return true;\r\n\t}\r\n\r\n\tmodifier verifyOwner(uint _propId) {\r\n\t\trequire(properties[_propId].currOwner == msg.sender);\r\n\t\t_;\r\n\t}\r\n\r\n\tmodifier verifyUser(address _user) {\r\n\t    require(verifiedUsers[_user]);\r\n\t    _;\r\n\t}\r\n\r\n\r\n\tmodifier verifyAuthority() {\r\n\t    require(users[msg.sender] == 2 && verifiedUsers[msg.sender]);\r\n\t    _;\r\n\t}\r\n\r\n\r\n\r\n\t// Create a new Property.\r\n\tfunction createProperty(uint _value,address _currOwner,uint _size,string memory _state, string memory _district, uint _surveyNumber) public verifyAuthority verifyUser(_currOwner) returns (bool) {\r\n\t\tpropertyid++;\r\n\t\tproperties[propertyid] = landDetails(propertyid, Status.PendingForApproval, _value, _currOwner, _size, _state ,_district, _surveyNumber);\r\n\t\treturn true;\r\n\t}\r\n\r\n\t// Approve the new Property.\r\n\tfunction approveProperty(uint _ID) public verifyAuthority returns (bool){\r\n\t\trequire(properties[_ID].currOwner != msg.sender);\r\n\t\tproperties[_ID].status = Status.ApprovedForTransactions;\r\n\t\treturn true;\r\n\t}\r\n\r\n\t// Reject the new Property.\r\n\tfunction rejectProperty(uint _ID) public  verifyAuthority returns (bool){\r\n\t\trequire(properties[_ID].currOwner != msg.sender);\r\n\t\tproperties[_ID].status = Status.ApplicationRejected;\r\n\t\treturn true;\r\n\t}\r\n\r\n    \t// Price ReEvaluation\r\n    function changeValue(uint _ID, uint _newValue) public verifyOwner(_ID) returns (bool) {\r\n        require(propertiesUnderTxn[_ID] == address(0));\r\n        properties[_ID].value = _newValue;\r\n        return true;\r\n    }\r\n\r\n\r\n\t// Request Sale\r\n\tfunction sale(uint _ID, address _newOwner) public onlyOwner(_ID) verifyUser(_newOwner) returns (bool) {\r\n\t\trequire(properties[_ID].currOwner != _newOwner);\r\n\t\trequire(propertiesUnderTxn[_ID] == address(0));\r\n\t\tpropertiesUnderTxn[_ID] = _newOwner;\r\n\t\treturn true;\r\n\t}\r\n\r\n\t// Approve Sale\r\n\tfunction approveSale(uint _ID) verifyAuthority public returns (bool) {\r\n\t    require(propertiesUnderTxn[_ID] != address(0));\r\n\t    properties[_ID].currOwner = propertiesUnderTxn[_ID];\r\n\t    propertiesUnderTxn[_ID] = address(0);\r\n\t    return true;\r\n\t}\r\n\r\n\r\n\t// PropertyDetails\r\n\tfunction getPropertyDetails(uint _ID) public view returns (Status, uint, address, uint, string memory, string memory, uint) {\r\n\t\treturn (properties[_ID].status, properties[_ID].value, properties[_ID].currOwner, properties[_ID].size, properties[_ID].state, properties[_ID].district, properties[_ID].surveyNumber);\r\n\t}\r\n\r\n\t\r\n}",
  "sourcePath": "C:/Users/pbisen/Desktop/final/contracts/land.sol",
  "compiler": {
    "name": "solc",
    "version": "0.5.16+commit.9c3226ce.Emscripten.clang"
  },
  "schemaVersion": "3.3.4",
  "updatedAt": "2021-04-23T19:39:19.011Z",
  "networkType": "ethereum",
  "devdoc": {
    "methods": {}
  },
  "userdoc": {
    "methods": {}
  }
}