{
  "contractName": "land",
  "abi": [
    {
      "inputs": [],
      "payable": false,
      "stateMutability": "nonpayable",
      "type": "constructor"
    },
    {
      "constant": true,
      "inputs": [],
      "name": "originator",
      "outputs": [
        {
          "internalType": "address",
          "name": "",
          "type": "address"
        }
      ],
      "payable": false,
      "stateMutability": "view",
      "type": "function"
    },
    {
      "constant": true,
      "inputs": [
        {
          "internalType": "uint256",
          "name": "",
          "type": "uint256"
        }
      ],
      "name": "properties",
      "outputs": [
        {
          "internalType": "uint256",
          "name": "id",
          "type": "uint256"
        },
        {
          "internalType": "enum land.Status",
          "name": "status",
          "type": "uint8"
        },
        {
          "internalType": "uint256",
          "name": "value",
          "type": "uint256"
        },
        {
          "internalType": "address",
          "name": "currOwner",
          "type": "address"
        },
        {
          "internalType": "uint256",
          "name": "size",
          "type": "uint256"
        },
        {
          "internalType": "string",
          "name": "state",
          "type": "string"
        },
        {
          "internalType": "string",
          "name": "district",
          "type": "string"
        },
        {
          "internalType": "uint256",
          "name": "surveyNumber",
          "type": "uint256"
        }
      ],
      "payable": false,
      "stateMutability": "view",
      "type": "function"
    },
    {
      "constant": true,
      "inputs": [
        {
          "internalType": "uint256",
          "name": "",
          "type": "uint256"
        }
      ],
      "name": "propertiesUnderTxn",
      "outputs": [
        {
          "internalType": "address",
          "name": "",
          "type": "address"
        }
      ],
      "payable": false,
      "stateMutability": "view",
      "type": "function"
    },
    {
      "constant": true,
      "inputs": [
        {
          "internalType": "uint256",
          "name": "",
          "type": "uint256"
        }
      ],
      "name": "propertyAdded",
      "outputs": [
        {
          "internalType": "bool",
          "name": "",
          "type": "bool"
        }
      ],
      "payable": false,
      "stateMutability": "view",
      "type": "function"
    },
    {
      "constant": true,
      "inputs": [],
      "name": "propertyid",
      "outputs": [
        {
          "internalType": "uint256",
          "name": "",
          "type": "uint256"
        }
      ],
      "payable": false,
      "stateMutability": "view",
      "type": "function"
    },
    {
      "constant": true,
      "inputs": [
        {
          "internalType": "address",
          "name": "",
          "type": "address"
        }
      ],
      "name": "users",
      "outputs": [
        {
          "internalType": "int256",
          "name": "",
          "type": "int256"
        }
      ],
      "payable": false,
      "stateMutability": "view",
      "type": "function"
    },
    {
      "constant": true,
      "inputs": [
        {
          "internalType": "address",
          "name": "",
          "type": "address"
        }
      ],
      "name": "verifiedUsers",
      "outputs": [
        {
          "internalType": "bool",
          "name": "",
          "type": "bool"
        }
      ],
      "payable": false,
      "stateMutability": "view",
      "type": "function"
    },
    {
      "constant": false,
      "inputs": [
        {
          "internalType": "address",
          "name": "_newUser",
          "type": "address"
        }
      ],
      "name": "addNewUser",
      "outputs": [
        {
          "internalType": "bool",
          "name": "",
          "type": "bool"
        }
      ],
      "payable": false,
      "stateMutability": "nonpayable",
      "type": "function"
    },
    {
      "constant": false,
      "inputs": [
        {
          "internalType": "address",
          "name": "_newAuthority",
          "type": "address"
        }
      ],
      "name": "addAuthority",
      "outputs": [
        {
          "internalType": "bool",
          "name": "",
          "type": "bool"
        }
      ],
      "payable": false,
      "stateMutability": "nonpayable",
      "type": "function"
    },
    {
      "constant": false,
      "inputs": [
        {
          "internalType": "address",
          "name": "_newUser",
          "type": "address"
        }
      ],
      "name": "approveUsers",
      "outputs": [
        {
          "internalType": "bool",
          "name": "",
          "type": "bool"
        }
      ],
      "payable": false,
      "stateMutability": "nonpayable",
      "type": "function"
    },
    {
      "constant": false,
      "inputs": [
        {
          "internalType": "uint256",
          "name": "_value",
          "type": "uint256"
        },
        {
          "internalType": "address",
          "name": "_currOwner",
          "type": "address"
        },
        {
          "internalType": "uint256",
          "name": "_size",
          "type": "uint256"
        },
        {
          "internalType": "string",
          "name": "_state",
          "type": "string"
        },
        {
          "internalType": "string",
          "name": "_district",
          "type": "string"
        },
        {
          "internalType": "uint256",
          "name": "_surveyNumber",
          "type": "uint256"
        }
      ],
      "name": "createProperty",
      "outputs": [
        {
          "internalType": "bool",
          "name": "",
          "type": "bool"
        }
      ],
      "payable": false,
      "stateMutability": "nonpayable",
      "type": "function"
    },
    {
      "constant": false,
      "inputs": [
        {
          "internalType": "uint256",
          "name": "_ID",
          "type": "uint256"
        }
      ],
      "name": "approveProperty",
      "outputs": [
        {
          "internalType": "bool",
          "name": "",
          "type": "bool"
        }
      ],
      "payable": false,
      "stateMutability": "nonpayable",
      "type": "function"
    },
    {
      "constant": false,
      "inputs": [
        {
          "internalType": "uint256",
          "name": "_ID",
          "type": "uint256"
        }
      ],
      "name": "rejectProperty",
      "outputs": [
        {
          "internalType": "bool",
          "name": "",
          "type": "bool"
        }
      ],
      "payable": false,
      "stateMutability": "nonpayable",
      "type": "function"
    },
    {
      "constant": false,
      "inputs": [
        {
          "internalType": "uint256",
          "name": "_ID",
          "type": "uint256"
        },
        {
          "internalType": "uint256",
          "name": "_newValue",
          "type": "uint256"
        }
      ],
      "name": "changeValue",
      "outputs": [
        {
          "internalType": "bool",
          "name": "",
          "type": "bool"
        }
      ],
      "payable": false,
      "stateMutability": "nonpayable",
      "type": "function"
    },
    {
      "constant": false,
      "inputs": [
        {
          "internalType": "uint256",
          "name": "_ID",
          "type": "uint256"
        },
        {
          "internalType": "address",
          "name": "_newOwner",
          "type": "address"
        }
      ],
      "name": "sale",
      "outputs": [
        {
          "internalType": "bool",
          "name": "",
          "type": "bool"
        }
      ],
      "payable": false,
      "stateMutability": "nonpayable",
      "type": "function"
    },
    {
      "constant": false,
      "inputs": [
        {
          "internalType": "uint256",
          "name": "_ID",
          "type": "uint256"
        }
      ],
      "name": "approveSale",
      "outputs": [
        {
          "internalType": "bool",
          "name": "",
          "type": "bool"
        }
      ],
      "payable": false,
      "stateMutability": "nonpayable",
      "type": "function"
    },
    {
      "constant": true,
      "inputs": [
        {
          "internalType": "uint256",
          "name": "_ID",
          "type": "uint256"
        }
      ],
      "name": "getPropertyDetails",
      "outputs": [
        {
          "internalType": "enum land.Status",
          "name": "",
          "type": "uint8"
        },
        {
          "internalType": "uint256",
          "name": "",
          "type": "uint256"
        },
        {
          "internalType": "address",
          "name": "",
          "type": "address"
        },
        {
          "internalType": "uint256",
          "name": "",
          "type": "uint256"
        },
        {
          "internalType": "string",
          "name": "",
          "type": "string"
        },
        {
          "internalType": "string",
          "name": "",
          "type": "string"
        },
        {
          "internalType": "uint256",
          "name": "",
          "type": "uint256"
        }
      ],
      "payable": false,
      "stateMutability": "view",
      "type": "function"
    }
  ],
  "bytecode": "0x608060405234801561001057600080fd5b50336000806101000a81548173ffffffffffffffffffffffffffffffffffffffff021916908373ffffffffffffffffffffffffffffffffffffffff1602179055506003600560008060009054906101000a900473ffffffffffffffffffffffffffffffffffffffff1673ffffffffffffffffffffffffffffffffffffffff1673ffffffffffffffffffffffffffffffffffffffff168152602001908152602001600020819055506001600660008060009054906101000a900473ffffffffffffffffffffffffffffffffffffffff1673ffffffffffffffffffffffffffffffffffffffff1673ffffffffffffffffffffffffffffffffffffffff16815260200190815260200160002060006101000a81548160ff021916908315150217905550611eab8061013f6000396000f3fe608060405234801561001057600080fd5b506004361061010b5760003560e01c80638709b2e7116100a2578063c902d02c11610071578063c902d02c1461073e578063e35fe366146107ac578063e9b66f8c14610808578063f2ffe5f51461084e578063f7b10808146108945761010b565b80638709b2e7146105d4578063a3684ca314610624578063a87430ba1461068a578063c1d5e84f146106e25761010b565b806327983fcf116100de57806327983fcf146104ca5780632cc616f51461051057806332282f8e1461052e5780633c815d9e1461058a5761010b565b8063076215b614610110578063126dbe43146102b857806314a72feb1461042857806326defa731461046e575b600080fd5b61029e600480360360c081101561012657600080fd5b8101908080359060200190929190803573ffffffffffffffffffffffffffffffffffffffff169060200190929190803590602001909291908035906020019064010000000081111561017757600080fd5b82018360208201111561018957600080fd5b803590602001918460018302840111640100000000831117156101ab57600080fd5b91908080601f016020809104026020016040519081016040528093929190818152602001838380828437600081840152601f19601f8201169050808301925050505050505091929192908035906020019064010000000081111561020e57600080fd5b82018360208201111561022057600080fd5b8035906020019184600183028401116401000000008311171561024257600080fd5b91908080601f016020809104026020016040519081016040528093929190818152602001838380828437600081840152601f19601f82011690508083019250505050505050919291929080359060200190929190505050610a0b565b604051808215151515815260200191505060405180910390f35b6102e4600480360360208110156102ce57600080fd5b8101908080359060200190929190505050610ccf565b604051808860038111156102f457fe5b60ff1681526020018781526020018673ffffffffffffffffffffffffffffffffffffffff1673ffffffffffffffffffffffffffffffffffffffff1681526020018581526020018060200180602001848152602001838103835286818151815260200191508051906020019080838360005b83811015610380578082015181840152602081019050610365565b50505050905090810190601f1680156103ad5780820380516001836020036101000a031916815260200191505b50838103825285818151815260200191508051906020019080838360005b838110156103e65780820151818401526020810190506103cb565b50505050905090810190601f1680156104135780820380516001836020036101000a031916815260200191505b50995050505050505050505060405180910390f35b6104546004803603602081101561043e57600080fd5b8101908080359060200190929190505050610ef7565b604051808215151515815260200191505060405180910390f35b6104b06004803603602081101561048457600080fd5b81019080803573ffffffffffffffffffffffffffffffffffffffff1690602001909291905050506110ec565b604051808215151515815260200191505060405180910390f35b6104f6600480360360208110156104e057600080fd5b81019080803590602001909291905050506112de565b604051808215151515815260200191505060405180910390f35b610518611432565b6040518082815260200191505060405180910390f35b6105706004803603602081101561054457600080fd5b81019080803573ffffffffffffffffffffffffffffffffffffffff169060200190929190505050611438565b604051808215151515815260200191505060405180910390f35b61059261158a565b604051808273ffffffffffffffffffffffffffffffffffffffff1673ffffffffffffffffffffffffffffffffffffffff16815260200191505060405180910390f35b61060a600480360360408110156105ea57600080fd5b8101908080359060200190929190803590602001909291905050506115af565b604051808215151515815260200191505060405180910390f35b6106706004803603604081101561063a57600080fd5b8101908080359060200190929190803573ffffffffffffffffffffffffffffffffffffffff1690602001909291905050506116b2565b604051808215151515815260200191505060405180910390f35b6106cc600480360360208110156106a057600080fd5b81019080803573ffffffffffffffffffffffffffffffffffffffff1690602001909291905050506118b3565b6040518082815260200191505060405180910390f35b610724600480360360208110156106f857600080fd5b81019080803573ffffffffffffffffffffffffffffffffffffffff1690602001909291905050506118cb565b604051808215151515815260200191505060405180910390f35b61076a6004803603602081101561075457600080fd5b8101908080359060200190929190505050611a66565b604051808273ffffffffffffffffffffffffffffffffffffffff1673ffffffffffffffffffffffffffffffffffffffff16815260200191505060405180910390f35b6107ee600480360360208110156107c257600080fd5b81019080803573ffffffffffffffffffffffffffffffffffffffff169060200190929190505050611a99565b604051808215151515815260200191505060405180910390f35b6108346004803603602081101561081e57600080fd5b8101908080359060200190929190505050611ab9565b604051808215151515815260200191505060405180910390f35b61087a6004803603602081101561086457600080fd5b8101908080359060200190929190505050611c0c565b604051808215151515815260200191505060405180910390f35b6108c0600480360360208110156108aa57600080fd5b8101908080359060200190929190505050611c2c565b604051808981526020018860038111156108d657fe5b60ff1681526020018781526020018673ffffffffffffffffffffffffffffffffffffffff1673ffffffffffffffffffffffffffffffffffffffff1681526020018581526020018060200180602001848152602001838103835286818151815260200191508051906020019080838360005b83811015610962578082015181840152602081019050610947565b50505050905090810190601f16801561098f5780820380516001836020036101000a031916815260200191505b50838103825285818151815260200191508051906020019080838360005b838110156109c85780820151818401526020810190506109ad565b50505050905090810190601f1680156109f55780820380516001836020036101000a031916815260200191505b509a505050505050505050505060405180910390f35b60006002600560003373ffffffffffffffffffffffffffffffffffffffff1673ffffffffffffffffffffffffffffffffffffffff1681526020019081526020016000205412158015610aa65750600660003373ffffffffffffffffffffffffffffffffffffffff1673ffffffffffffffffffffffffffffffffffffffff16815260200190815260200160002060009054906101000a900460ff165b610aaf57600080fd5b85600660008273ffffffffffffffffffffffffffffffffffffffff1673ffffffffffffffffffffffffffffffffffffffff16815260200190815260200160002060009054906101000a900460ff16610b0657600080fd5b82600115156004600083815260200190815260200160002060009054906101000a900460ff1615151415610b3957600080fd5b600160008154809291906001019190505550604051806101000160405280600154815260200160016003811115610b6c57fe5b81526020018a81526020018973ffffffffffffffffffffffffffffffffffffffff168152602001888152602001878152602001868152602001858152506002600060015481526020019081526020016000206000820151816000015560208201518160010160006101000a81548160ff02191690836003811115610bec57fe5b02179055506040820151816002015560608201518160030160006101000a81548173ffffffffffffffffffffffffffffffffffffffff021916908373ffffffffffffffffffffffffffffffffffffffff1602179055506080820151816004015560a0820151816005019080519060200190610c68929190611dd1565b5060c0820151816006019080519060200190610c85929190611dd1565b5060e0820151816007015590505060016004600086815260200190815260200160002060006101000a81548160ff0219169083151502179055506001925050509695505050505050565b60008060008060608060006002600089815260200190815260200160002060010160009054906101000a900460ff16600260008a815260200190815260200160002060020154600260008b815260200190815260200160002060030160009054906101000a900473ffffffffffffffffffffffffffffffffffffffff16600260008c815260200190815260200160002060040154600260008d8152602001908152602001600020600501600260008e8152602001908152602001600020600601600260008f815260200190815260200160002060070154828054600181600116156101000203166002900480601f016020809104026020016040519081016040528092919081815260200182805460018160011615610100020316600290048015610e3b5780601f10610e1057610100808354040283529160200191610e3b565b820191906000526020600020905b815481529060010190602001808311610e1e57829003601f168201915b50505050509250818054600181600116156101000203166002900480601f016020809104026020016040519081016040528092919081815260200182805460018160011615610100020316600290048015610ed75780601f10610eac57610100808354040283529160200191610ed7565b820191906000526020600020905b815481529060010190602001808311610eba57829003601f168201915b505050505091509650965096509650965096509650919395979092949650565b60006002600560003373ffffffffffffffffffffffffffffffffffffffff1673ffffffffffffffffffffffffffffffffffffffff1681526020019081526020016000205412158015610f925750600660003373ffffffffffffffffffffffffffffffffffffffff1673ffffffffffffffffffffffffffffffffffffffff16815260200190815260200160002060009054906101000a900460ff165b610f9b57600080fd5b600073ffffffffffffffffffffffffffffffffffffffff166003600084815260200190815260200160002060009054906101000a900473ffffffffffffffffffffffffffffffffffffffff1673ffffffffffffffffffffffffffffffffffffffff16141561100857600080fd5b6003600083815260200190815260200160002060009054906101000a900473ffffffffffffffffffffffffffffffffffffffff166002600084815260200190815260200160002060030160006101000a81548173ffffffffffffffffffffffffffffffffffffffff021916908373ffffffffffffffffffffffffffffffffffffffff16021790555060006003600084815260200190815260200160002060006101000a81548173ffffffffffffffffffffffffffffffffffffffff021916908373ffffffffffffffffffffffffffffffffffffffff16021790555060019050919050565b60006003600560003373ffffffffffffffffffffffffffffffffffffffff1673ffffffffffffffffffffffffffffffffffffffff168152602001908152602001600020541480156111865750600660003373ffffffffffffffffffffffffffffffffffffffff1673ffffffffffffffffffffffffffffffffffffffff16815260200190815260200160002060009054906101000a900460ff165b61118f57600080fd5b6000600560008473ffffffffffffffffffffffffffffffffffffffff1673ffffffffffffffffffffffffffffffffffffffff16815260200190815260200160002054146111db57600080fd5b60001515600660008473ffffffffffffffffffffffffffffffffffffffff1673ffffffffffffffffffffffffffffffffffffffff16815260200190815260200160002060009054906101000a900460ff1615151461123857600080fd5b6002600560008473ffffffffffffffffffffffffffffffffffffffff1673ffffffffffffffffffffffffffffffffffffffff168152602001908152602001600020819055506001600660008473ffffffffffffffffffffffffffffffffffffffff1673ffffffffffffffffffffffffffffffffffffffff16815260200190815260200160002060006101000a81548160ff02191690831515021790555060019050919050565b60006002600560003373ffffffffffffffffffffffffffffffffffffffff1673ffffffffffffffffffffffffffffffffffffffff16815260200190815260200160002054121580156113795750600660003373ffffffffffffffffffffffffffffffffffffffff1673ffffffffffffffffffffffffffffffffffffffff16815260200190815260200160002060009054906101000a900460ff165b61138257600080fd5b3373ffffffffffffffffffffffffffffffffffffffff166002600084815260200190815260200160002060030160009054906101000a900473ffffffffffffffffffffffffffffffffffffffff1673ffffffffffffffffffffffffffffffffffffffff1614156113f157600080fd5b60036002600084815260200190815260200160002060010160006101000a81548160ff0219169083600381111561142457fe5b021790555060019050919050565b60015481565b60006002600560003373ffffffffffffffffffffffffffffffffffffffff1673ffffffffffffffffffffffffffffffffffffffff16815260200190815260200160002054121580156114d35750600660003373ffffffffffffffffffffffffffffffffffffffff1673ffffffffffffffffffffffffffffffffffffffff16815260200190815260200160002060009054906101000a900460ff165b6114dc57600080fd5b6000600560008473ffffffffffffffffffffffffffffffffffffffff1673ffffffffffffffffffffffffffffffffffffffff16815260200190815260200160002054141561152957600080fd5b6001600660008473ffffffffffffffffffffffffffffffffffffffff1673ffffffffffffffffffffffffffffffffffffffff16815260200190815260200160002060006101000a81548160ff02191690831515021790555060019050919050565b6000809054906101000a900473ffffffffffffffffffffffffffffffffffffffff1681565b6000823373ffffffffffffffffffffffffffffffffffffffff166002600083815260200190815260200160002060030160009054906101000a900473ffffffffffffffffffffffffffffffffffffffff1673ffffffffffffffffffffffffffffffffffffffff161461162057600080fd5b600073ffffffffffffffffffffffffffffffffffffffff166003600086815260200190815260200160002060009054906101000a900473ffffffffffffffffffffffffffffffffffffffff1673ffffffffffffffffffffffffffffffffffffffff161461168c57600080fd5b826002600086815260200190815260200160002060020181905550600191505092915050565b6000823373ffffffffffffffffffffffffffffffffffffffff166002600083815260200190815260200160002060030160009054906101000a900473ffffffffffffffffffffffffffffffffffffffff1673ffffffffffffffffffffffffffffffffffffffff161461172357600080fd5b82600660008273ffffffffffffffffffffffffffffffffffffffff1673ffffffffffffffffffffffffffffffffffffffff16815260200190815260200160002060009054906101000a900460ff1661177a57600080fd5b8373ffffffffffffffffffffffffffffffffffffffff166002600087815260200190815260200160002060030160009054906101000a900473ffffffffffffffffffffffffffffffffffffffff1673ffffffffffffffffffffffffffffffffffffffff1614156117e957600080fd5b600073ffffffffffffffffffffffffffffffffffffffff166003600087815260200190815260200160002060009054906101000a900473ffffffffffffffffffffffffffffffffffffffff1673ffffffffffffffffffffffffffffffffffffffff161461185557600080fd5b836003600087815260200190815260200160002060006101000a81548173ffffffffffffffffffffffffffffffffffffffff021916908373ffffffffffffffffffffffffffffffffffffffff16021790555060019250505092915050565b60056020528060005260406000206000915090505481565b60006002600560003373ffffffffffffffffffffffffffffffffffffffff1673ffffffffffffffffffffffffffffffffffffffff16815260200190815260200160002054121580156119665750600660003373ffffffffffffffffffffffffffffffffffffffff1673ffffffffffffffffffffffffffffffffffffffff16815260200190815260200160002060009054906101000a900460ff165b61196f57600080fd5b6000600560008473ffffffffffffffffffffffffffffffffffffffff1673ffffffffffffffffffffffffffffffffffffffff16815260200190815260200160002054146119bb57600080fd5b60001515600660008473ffffffffffffffffffffffffffffffffffffffff1673ffffffffffffffffffffffffffffffffffffffff16815260200190815260200160002060009054906101000a900460ff16151514611a1857600080fd5b6001600560008473ffffffffffffffffffffffffffffffffffffffff1673ffffffffffffffffffffffffffffffffffffffff1681526020019081526020016000208190555060019050919050565b60036020528060005260406000206000915054906101000a900473ffffffffffffffffffffffffffffffffffffffff1681565b60066020528060005260406000206000915054906101000a900460ff1681565b60006002600560003373ffffffffffffffffffffffffffffffffffffffff1673ffffffffffffffffffffffffffffffffffffffff1681526020019081526020016000205412158015611b545750600660003373ffffffffffffffffffffffffffffffffffffffff1673ffffffffffffffffffffffffffffffffffffffff16815260200190815260200160002060009054906101000a900460ff165b611b5d57600080fd5b3373ffffffffffffffffffffffffffffffffffffffff166002600084815260200190815260200160002060030160009054906101000a900473ffffffffffffffffffffffffffffffffffffffff1673ffffffffffffffffffffffffffffffffffffffff161415611bcc57600080fd5b600280600084815260200190815260200160002060010160006101000a81548160ff02191690836003811115611bfe57fe5b021790555060019050919050565b60046020528060005260406000206000915054906101000a900460ff1681565b60026020528060005260406000206000915090508060000154908060010160009054906101000a900460ff16908060020154908060030160009054906101000a900473ffffffffffffffffffffffffffffffffffffffff1690806004015490806005018054600181600116156101000203166002900480601f016020809104026020016040519081016040528092919081815260200182805460018160011615610100020316600290048015611d235780601f10611cf857610100808354040283529160200191611d23565b820191906000526020600020905b815481529060010190602001808311611d0657829003601f168201915b505050505090806006018054600181600116156101000203166002900480601f016020809104026020016040519081016040528092919081815260200182805460018160011615610100020316600290048015611dc15780601f10611d9657610100808354040283529160200191611dc1565b820191906000526020600020905b815481529060010190602001808311611da457829003601f168201915b5050505050908060070154905088565b828054600181600116156101000203166002900490600052602060002090601f016020900481019282601f10611e1257805160ff1916838001178555611e40565b82800160010185558215611e40579182015b82811115611e3f578251825591602001919060010190611e24565b5b509050611e4d9190611e51565b5090565b611e7391905b80821115611e6f576000816000905550600101611e57565b5090565b9056fea265627a7a723158208a429e17ec3209ef7c22063aa951b353d36ffa382def7afa5830969c584ec84364736f6c63430005100032",
  "source": "pragma solidity ^0.5.0;\r\n\r\ncontract land {\r\n\r\n    address public originator;\r\n\tuint public propertyid;\r\n\tenum Status { NotFound, PendingForApproval, ApprovedForTransactions, ApplicationRejected }\r\n\r\n\tstruct landDetails {\r\n        uint id;   //propertyid\r\n\t\tStatus status;\r\n\t\tuint value;\r\n\t\taddress currOwner;\r\n        uint size;\r\n        string state;\r\n        string district;\r\n        uint surveyNumber;  //alloted by govt\r\n\t}\r\n\r\n    // Initializing the User Contract.\r\n\tconstructor() public  {\r\n\t\toriginator = msg.sender;\r\n\t\tusers[originator] = 3;\r\n\t\tverifiedUsers[originator] = true;\r\n\t}\r\n\r\n\tmapping(uint => landDetails) public properties;\r\n\tmapping(uint => address) public propertiesUnderTxn;\r\n\tmapping(uint => bool) public propertyAdded;\r\n\r\n    mapping(address => int) public users;   //maps users to level of authority \r\n    mapping(address => bool) public verifiedUsers;\r\n\r\n\tfunction addNewUser(address _newUser) public verifyAuthority returns (bool) {\r\n\t    require(users[_newUser] == 0);\r\n\t    require(verifiedUsers[_newUser] == false);\r\n\t    users[_newUser] = 1;\r\n\t    return true;\r\n\t}\r\n\r\n\r\n\tfunction addAuthority(address _newAuthority) public verifyHeads returns (bool) {\r\n\t    require(users[_newAuthority] == 0);\r\n\t    require(verifiedUsers[_newAuthority] == false);\r\n\t    users[_newAuthority] = 2;\r\n\t\tverifiedUsers[_newAuthority] = true;\r\n\t    return true;\r\n\t}\r\n\r\n\tmodifier onlyOwner(uint _propId) {\r\n\t\trequire(properties[_propId].currOwner == msg.sender);\r\n\t\t_;\r\n\t}\r\n\r\n\tfunction approveUsers(address _newUser) verifyAuthority public returns (bool) {\r\n\t    require(users[_newUser] != 0);\r\n\t    verifiedUsers[_newUser] = true;\r\n\t    return true;\r\n\t}\r\n\r\n\tmodifier verifyOwner(uint _propId) {\r\n\t\trequire(properties[_propId].currOwner == msg.sender);\r\n\t\t_;\r\n\t}\r\n\r\n\tmodifier verifyUser(address _user) {\r\n\t    require(verifiedUsers[_user]);\r\n\t    _;\r\n\t}\r\n\r\n\r\n\tmodifier verifyAuthority() {\r\n\t    require(users[msg.sender] >=2 && verifiedUsers[msg.sender]);\r\n\t    _;\r\n\t}\r\n\r\n\tmodifier verifyHeads() {\r\n\t    require(users[msg.sender] == 3 && verifiedUsers[msg.sender]);\r\n\t    _;\r\n\t}\r\n\t\r\n\tmodifier propertyExists(uint _survey){\r\n\t    require(propertyAdded[_survey] != true);\r\n\t    _;\r\n\t}\r\n\r\n\r\n\r\n\t// Create a new Property.\r\n\tfunction createProperty(uint _value,address _currOwner,uint _size,string memory _state, string memory _district, uint _surveyNumber) public verifyAuthority verifyUser(_currOwner) propertyExists(_surveyNumber) returns (bool) {\r\n\t\tpropertyid++;\r\n\t\tproperties[propertyid] = landDetails(propertyid, Status.PendingForApproval, _value, _currOwner, _size, _state ,_district, _surveyNumber);\r\n\t\tpropertyAdded[_surveyNumber] = true;\r\n\t\treturn true;\r\n\t}\r\n\r\n\r\n\t// Approve the new Property.\r\n\tfunction approveProperty(uint _ID) public verifyAuthority returns (bool){\r\n\t\trequire(properties[_ID].currOwner != msg.sender);\r\n\t\tproperties[_ID].status = Status.ApprovedForTransactions;\r\n\t\treturn true;\r\n\t}\r\n\r\n\t// Reject the new Property.\r\n\tfunction rejectProperty(uint _ID) public  verifyAuthority returns (bool){\r\n\t\trequire(properties[_ID].currOwner != msg.sender);\r\n\t\tproperties[_ID].status = Status.ApplicationRejected;\r\n\t\treturn true;\r\n\t}\r\n\r\n    \t// Price ReEvaluation\r\n    function changeValue(uint _ID, uint _newValue) public verifyOwner(_ID) returns (bool) {\r\n        require(propertiesUnderTxn[_ID] == address(0));\r\n        properties[_ID].value = _newValue;\r\n        return true;\r\n    }\r\n\r\n\r\n\t// Request Sale\r\n\tfunction sale(uint _ID, address _newOwner) public onlyOwner(_ID) verifyUser(_newOwner) returns (bool) {\r\n\t\trequire(properties[_ID].currOwner != _newOwner);\r\n\t\trequire(propertiesUnderTxn[_ID] == address(0));\r\n\t\tpropertiesUnderTxn[_ID] = _newOwner;\r\n\t\treturn true;\r\n\t}\r\n\r\n\t// Approve Sale\r\n\tfunction approveSale(uint _ID) verifyAuthority public returns (bool) {\r\n\t    require(propertiesUnderTxn[_ID] != address(0));\r\n\t    properties[_ID].currOwner = propertiesUnderTxn[_ID];\r\n\t    propertiesUnderTxn[_ID] = address(0);\r\n\t    return true;\r\n\t}\r\n\r\n\r\n\t// PropertyDetails\r\n\tfunction getPropertyDetails(uint _ID) public view returns (Status, uint, address, uint, string memory, string memory, uint) {\r\n\t\treturn (properties[_ID].status, properties[_ID].value, properties[_ID].currOwner, properties[_ID].size, properties[_ID].state, properties[_ID].district, properties[_ID].surveyNumber);\r\n\t}\r\n\r\n\t\r\n}",
  "sourcePath": "C:/Users/pbisen/Desktop/final/contracts/land.sol",
  "compiler": {
    "name": "solc",
    "version": "0.5.16+commit.9c3226ce.Emscripten.clang"
  },
  "schemaVersion": "3.3.4",
  "updatedAt": "2021-04-28T23:59:18.982Z",
  "networkType": "ethereum",
  "devdoc": {
    "methods": {}
  },
  "userdoc": {
    "methods": {}
  }
}